:04000000BFEF00F05E
:100008005782FACF1FF0FBCF20F0E9CF21F0EACFDB
:1000180022F0E1CF23F0E2CF24F0D9CF25F0DACFD8
:1000280026F0F3CF27F0F4CF28F0F6CF29F0F7CF5A
:100038002AF0F8CF2BF0F5CF2CF054C7E8FF090AC7
:10004800D8B438B820D00E0138A304D00E012EB38E
:10005800DAEC3DF00E0138AF04D00E012EBFC5EC2E
:100068003DF00E0138A704D00E012EB7B5EC3DF0D7
:100078000E0133A562D00E0129A55FD0FBEC3BF041
:100088000E0133955AD00E0138AF04D00E012EBFA1
:10009800C5EC3DF00E0138A304D00E012EB3DAEC06
:1000A8003DF00E0138A704D00E012EB7B5EC3DF097
:1000B8000E0138AB04D00E012EBBEBEC26F00E017E
:1000C80033A707D00E0129A704D09AEC30F00E010F
:1000D80033970E0133A507D00E0129A504D0FBECF8
:1000E8003BF00E0133950E0136A104D00E012CB160
:1000F800B4EC32F00E0133A112D00E0129A10FD0B9
:1001080065EC3DF00E013391F2B003D01E6A1E2A51
:1001180001D01E6AF2501E18FE0B1E18F26E0E0158
:1001280037A304D00E012DB389EC3BF00E0133AB9D
:1001380004D00E0129BBCFEC3CF02CC0F5FF2BC03E
:10014800F8FF2AC0F7FF29C0F6FF28C0F4FF27C030
:10015800F3FF26C0DAFF25C0D9FF24C0E2FF23C081
:10016800E1FF22C0EAFF21C0E9FF20C0FBFF1FC05A
:10017800FAFF57921100FEEF2DF0640EE8CFC0F39E
:10018800000E00016D6F010E6C6F00016DBF0AD08B
:1001980000016D5106E10B0E00016C5DD8B0E2D094
:1001A80001D0E0D06CC060F06DC061F0000E0001BD
:1001B800636F050E626FB3EC38F0C40E0001602562
:1001C800D96E030E00016121DA6E1B0EDF6E6CC062
:1001D80060F06DC061F0000E0001636F050E626F84
:1001E800B3EC38F0C00E0001666F030E0001676FB4
:1001F800040E00016627000E67230001605100010C
:1002080066270001615100016723010E0001662580
:10021800D96E000E00016721DA6E110EDF6E6CC018
:1002280060F06DC061F0000E0001636F050E626F33
:10023800B3EC38F0C00E0001666F030E0001676F63
:10024800040E00016627000E6723000160510001BB
:1002580066270001615100016723020E000166252F
:10026800D96E000E00016721DA6E030EDF6E6CC0D6
:1002780060F06DC061F0000E0001636F050E626FE3
:10028800B3EC38F0C00E0001666F030E0001676F13
:10029800040E00016627000E67230001605100016B
:1002A80066270001615100016723030E00016625DE
:1002B800D96E000E00016721DA6E00016C5100084A
:1002C800820FDF6E6CC060F06DC061F0000E00013F
:1002D800636F640E626FB3EC38F0F90E0001666F5D
:1002E800010E0001676F6CC068F06DC069F0000115
:1002F800D890683769370001D890683769370001A6
:100308006651000168270001675100016923C00E8A
:1003180000016A6F030E00016B6F040E00016A276B
:10032800000E6B230001685100016A270001695122
:1003380000016B23020E00016A25D96E000E000130
:100348006B21DA6E000160C0DEFF000161C0DDFFD5
:1003580000016C4B6D2B00016DBF24D700016D515E
:1003680001E119D7000E00016F6F0B0E6E6F0001CF
:100378006FBF0AD000016F5106E1150E00016E5DD6
:10038800D8B0E2D001D0E0D06EC060F06FC061F0AC
:10039800000E0001636F050E626FB3EC38F0C40EF7
:1003A80000016025D96E030E00016121DA6E1B0E73
:1003B800DF6E6EC060F06FC061F0000E0001636F09
:1003C800050E626FB3EC38F0C00E0001666F030EC5
:1003D8000001676F040E00016627000E6723000105
:1003E8006051000166270001615100016723010E79
:1003F80000016625D96E000E00016721DA6E110E24
:10040800DF6E6EC060F06FC061F0000E0001636FB8
:10041800050E626FB3EC38F0C00E0001666F030E74
:100428000001676F040E00016627000E67230001B4
:100438006051000166270001615100016723020E27
:1004480000016625D96E000E00016721DA6E030EE1
:10045800DF6E6EC060F06FC061F0000E0001636F68
:10046800050E626FB3EC38F0C00E0001666F030E24
:100478000001676F040E00016627000E6723000164
:100488006051000166270001615100016723030ED6
:1004980000016625D96E000E00016721DA6E0001A1
:1004A8006E510008810FDF6E6EC060F06FC061F0A2
:1004B800000E0001636F640E626FB3EC38F0F90E42
:1004C8000001666F010E0001676F6EC068F06FC0B3
:1004D80069F00001D890683769370001D89068370B
:1004E8006937000166510001682700016751000162
:1004F8006923C00E00016A6F030E00016B6F040EC2
:1005080000016A27000E6B230001685100016A2769
:100518000001695100016B23020E00016A25D96EA2
:10052800000E00016B21DA6E000160C0DEFF0001E1
:1005380061C0DDFF00016E4B6F2B00016FBF24D738
:1005480000016F5101E119D7000E0001716F150EFE
:10055800706F000171BF0AD00001715106E1290EC8
:100568000001705DD8B0E1D001D0DFD070C060F07C
:1005780071C061F0000E0001636F050E626FB3EC8D
:1005880038F0C40E00016025D96E030E0001612108
:10059800DA6E1B0EDF6E70C060F071C061F0000E85
:1005A8000001636F050E626FB3EC38F0C00E0001F6
:1005B800666F030E0001676F040E00016627000EC8
:1005C80067230001605100016627000161510001A5
:1005D8006723010E00016625D96E000E0001672110
:1005E800DA6E100EDF6E70C060F071C061F0000E40
:1005F8000001636F050E626FB3EC38F0C00E0001A6
:10060800666F030E0001676F040E00016627000E77
:100618006723000160510001662700016151000154
:100628006723020E00016625D96E000E00016721BE
:10063800DA6EEC0EDF6E70C060F071C061F0000E13
:100648000001636F050E626FB3EC38F0C00E000155
:10065800666F030E0001676F040E00016627000E27
:100668006723000160510001662700016151000104
:100678006723030E00016625D96E000E000167216D
:10068800DA6E00017051080FDF6E70C060F071C043
:1006980061F0000E0001636F640E626FB3EC38F016
:1006A800F90E0001666F010E0001676F70C068F0F7
:1006B80071C069F00001D890683769370001D89097
:1006C80068376937000166510001682700016751E2
:1006D80000016923C00E00016A6F030E00016B6FF1
:1006E800040E00016A27000E6B2300016851000107
:1006F8006A270001695100016B23020E00016A2577
:10070800D96E000E00016B21DA6E000160C0DEFFB9
:10071800000161C0DDFF0001704B712B000171BF4A
:1007280025D70001715101E11AD7000E0001736F3E
:10073800290E726F000173BF0AD00001735106E1E0
:100748003D0E0001725DD8B0E1D001D0DFD072C09B
:1007580060F073C061F0000E0001636F050E626FF8
:10076800B3EC38F0C40E00016025D96E030E000109
:100778006121DA6E1B0EDF6E72C060F073C061F02B
:10078800000E0001636F050E626FB3EC38F0C00E07
:100798000001666F030E0001676F040E00016627F3
:1007A800000E6723000160510001662700016151B6
:1007B80000016723010E00016625D96E000E0001B5
:1007C8006721DA6E100EDF6E72C060F073C061F0E0
:1007D800000E0001636F050E626FB3EC38F0C00EB7
:1007E8000001666F030E0001676F040E00016627A3
:1007F800000E672300016051000166270001615166
:1008080000016723020E00016625D96E000E000163
:100818006721DA6EEB0EDF6E72C060F073C061F0B4
:10082800000E0001636F050E626FB3EC38F0C00E66
:100838000001666F030E0001676F040E0001662752
:10084800000E672300016051000166270001615115
:1008580000016723030E00016625D96E000E000112
:100868006721DA6E000172514A0FDF6E72C060F0C4
:1008780073C061F0000E0001636F640E626FB3EC29
:1008880038F0F90E0001666F010E0001676F72C043
:1008980068F073C069F00001D890683769370001C3
:1008A800D890683769370001665100016827000150
:1008B800675100016923C00E00016A6F030E000131
:1008C8006B6F040E00016A27000E6B23000168514C
:1008D80000016A270001695100016B23020E000123
:1008E8006A25D96E000E00016B21DA6E000160C026
:1008F800DEFF000161C0DDFF0001724B732B0001B8
:1009080073BF25D70001735101E11AD7000E00010A
:10091800756F3D0E746F000175BF0AD000017551E7
:1009280006E1510E0001745DD8B0E1D001D0DFD0EE
:1009380074C060F075C061F0000E0001636F050EB1
:10094800626FB3EC38F0C40E00016025D96E030E57
:1009580000016121DA6E1C0EDF6E74C060F075C094
:1009680061F0000E0001636F050E626FB3EC38F0A2
:10097800C00E0001666F030E0001676F040E0001D0
:100988006627000E672300016051000166270001F9
:10099800615100016723010E00016625D96E000E22
:1009A80000016721DA6E110EDF6E74C060F075C049
:1009B80061F0000E0001636F050E626FB3EC38F052
:1009C800C00E0001666F030E0001676F040E000180
:1009D8006627000E672300016051000166270001A9
:1009E800615100016723020E00016625D96E000ED1
:1009F80000016721DA6E5F0EDF6E74C060F075C0AB
:100A080061F0000E0001636F050E626FB3EC38F001
:100A1800C00E0001666F030E0001676F040E00012F
:100A28006627000E67230001605100016627000158
:100A3800615100016723030E00016625D96E000E7F
:100A480000016721DA6E00017451AF0FDF6E74C0C8
:100A580060F075C061F0000E0001636F640E626F94
:100A6800B3EC38F0F90E0001666F010E0001676FF4
:100A780074C068F075C069F00001D89068376937AC
:100A88000001D8906837693700016651000168276E
:100A98000001675100016923C00E00016A6F030E4F
:100AA80000016B6F040E00016A27000E6B23000122
:100AB800685100016A270001695100016B23020E89
:100AC80000016A25D96E000E00016B21DA6E000163
:100AD80060C0DEFF000161C0DDFF0001744B752BB3
:100AE800000175BF25D70001755101E11AD7000E25
:100AF8000001776F510E766F000177BF0AD00001B1
:100B0800775106E1650E0001765DD8B0120001D07C
:100B1800120076C060F077C061F0000E0001636FCC
:100B2800050E626FB3EC38F0C40E00016025D96E73
:100B3800030E00016121DA6E1B0EDF6E76C060F0D5
:100B480077C061F0000E0001636F050E626FB3ECB1
:100B580038F0C00E0001666F030E0001676F040EC7
:100B680000016627000E6723000160510001662717
:100B78000001615100016723010E00016625D96E4D
:100B8800000E00016721DA6E110EDF6E76C060F08C
:100B980077C061F0000E0001636F050E626FB3EC61
:100BA80038F0C00E0001666F030E0001676F040E77
:100BB80000016627000E67230001605100016627C7
:100BC8000001615100016723020E00016625D96EFC
:100BD800000E00016721DA6E080EDF6E76C060F045
:100BE80077C061F0000E0001636F050E626FB3EC11
:100BF80038F0C00E0001666F030E0001676F040E27
:100C080000016627000E6723000160510001662776
:100C18000001615100016723030E00016625D96EAA
:100C2800000E00016721DA6E00017651470FDF6E72
:100C380076C060F077C061F0000E0001636F640E4B
:100C4800626FB3EC38F0F90E0001666F010E000117
:100C5800676F76C068F077C069F00001D890683790
:100C680069370001D890683769370001665100017B
:100C780068270001675100016923C00E00016A6FEF
:100C8800030E00016B6F040E00016A27000E6B2330
:100C98000001685100016A270001695100016B23B6
:100CA800020E00016A25D96E000E00016B21DA6E72
:100CB800000160C0DEFF000161C0DDFF0001764B6E
:100CC800772B000177BF25D70001775101E11AD7AB
:100CD8001200000E0001806F160E00017D6F000EDD
:100CE80000017E6F75C07FF0010E00016A6F7D0EF6
:100CF80000016B6F000E00016C6F030E96EC28F07C
:100D08000009D8A409D00001802B80050001776F65
:100D1800030E00017765E8D7040E00018061C9D190
:100D28000001E0AF37D0F90E0001776F010E000126
:100D3800786F75C079F076C07AF00001D89079376D
:100D48007A370001D89079377A3700017751000156
:100D580079270001785100017A23C00E00017B6FCA
:100D6800030E00017C6F040E00017B27000E7C231C
:100D78000001795100017B2700017A5100017C2391
:100D8800010E00017B25D96E000E00017C21DA6E70
:100D9800DF8E36D0F90E0001776F010E0001786FF3
:100DA80075C079F076C07AF00001D89079377A3733
:100DB8000001D89079377A370001775100017927F7
:100DC8000001785100017A23C00E00017B6F030EE9
:100DD80000017C6F040E00017B27000E7C230001BC
:100DE800795100017B2700017A5100017C23010E13
:100DF80000017B25D96E000E00017C21DA6EDF9E92
:100E08000001E0AD37D0F90E0001776F010E000147
:100E1800786F75C079F076C07AF00001D89079378C
:100E28007A370001D89079377A3700017751000175
:100E380079270001785100017A23C00E00017B6FE9
:100E4800030E00017C6F040E00017B27000E7C233B
:100E58000001795100017B2700017A5100017C23B0
:100E6800010E00017B25D96E000E00017C21DA6E8F
:100E7800DF8C36D0F90E0001776F010E0001786F14
:100E880075C079F076C07AF00001D89079377A3752
:100E98000001D89079377A37000177510001792716
:100EA8000001785100017A23C00E00017B6F030E08
:100EB80000017C6F040E00017B27000E7C230001DB
:100EC800795100017B2700017A5100017C23010E32
:100ED80000017B25D96E000E00017C21DA6EDF9CB3
:100EE8000001E0AB37D0F90E0001776F010E000169
:100EF800786F75C079F076C07AF00001D8907937AC
:100F08007A370001D89079377A3700017751000194
:100F180079270001785100017A23C00E00017B6F08
:100F2800030E00017C6F040E00017B27000E7C235A
:100F38000001795100017B2700017A5100017C23CF
:100F4800010E00017B25D96E000E00017C21DA6EAE
:100F5800DF8A36D0F90E0001776F010E0001786F35
:100F680075C079F076C07AF00001D89079377A3771
:100F78000001D89079377A37000177510001792735
:100F88000001785100017A23C00E00017B6F030E27
:100F980000017C6F040E00017B27000E7C230001FA
:100FA800795100017B2700017A5100017C23010E51
:100FB80000017B25D96E000E00017C21DA6EDF9AD4
:100FC8000001E0A737D0F90E0001776F010E00018C
:100FD800786F75C079F076C07AF00001D8907937CB
:100FE8007A370001D89079377A37000177510001B4
:100FF80079270001785100017A23C00E00017B6F28
:10100800030E00017C6F040E00017B27000E7C2379
:101018000001795100017B2700017A5100017C23EE
:10102800010E00017B25D96E000E00017C21DA6ECD
:10103800DF8836D0F90E0001776F010E0001786F56
:1010480075C079F076C07AF00001D89079377A3790
:101058000001D89079377A37000177510001792754
:101068000001785100017A23C00E00017B6F030E46
:1010780000017C6F040E00017B27000E7C23000119
:10108800795100017B2700017A5100017C23010E70
:1010980000017B25D96E000E00017C21DA6EDF98F5
:1010A800680E0001E019D8A402D0010E1200000E4B
:1010B8001200000E1200D3EC1FF00009D8A403D0D0
:1010C8000001C29712000001C299AA0E0001CA6F5E
:1010D800D7C0CCF0050E0001CB6F90D1000EE8CF41
:1010E800C0F3020E0001CB27D8C0C1F0640E000186
:1010F800D86103D0C1C0CDF003D0640E0001CD6F1C
:101108000A0E77D1060E0001CB27D80E0001666FB4
:10111800000E0001676F04EC2DF00009D8B404D06C
:1011280000F00001C2971200C0C3E8FF010FE8CF2A
:10113800C0F3000E00019D6F000E9C6F00019DBF63
:1011480008D000019D513DE1040E00019C5DD8B01E
:1011580038D0030E00019C250001936F000E00019A
:101168009D210001946FD50E00019325D96E000EC4
:1011780000019421DA6EC0C395F000019551050D68
:10118800C00E0001966F030E0001976F040E000158
:101198009627000E9723F35000019627F45000017C
:1011A800972300019C5100019625E16E00019D5195
:1011B80000019721E26EDFCFE7FF00019C4B9D2BDA
:1011C800BDD70001DC510001946F936BF90E00014B
:1011D800956F010E0001966FC0C397F000019751FB
:1011E800040D00019551F32600019651F422C00E1A
:1011F8000001986F030E0001996F040E00019827F3
:10120800000E9923F35000019827F4500001992308
:10121800020E00019825D96E000E00019921DA6EA0
:1012280093C0DEFF94C0DDFFF90E0001936F010E3D
:101238000001946FC0C395F000019551040D0001A1
:101248009351F32600019451F422C00E0001966FC9
:10125800030E0001976F040E00019627000E9723D6
:10126800F35000019627F45000019723020E000165
:101278009625D96E000E00019721DA6E0001DD5126
:10128800DE12000EDD12F90E0001936F010E00014F
:10129800946FC0C395F000019551040D000193515E
:1012A800F32600019451F422C00E0001966F030E3C
:1012B8000001976F040E00019627000E9723F35044
:1012C80000019627F45000019723010E000196258E
:1012D800D96E000E00019721DA6EDF84000E00013E
:1012E8009F6F000E9E6F00019FBF08D000019F51A5
:1012F80035E1040E00019E5DD8B030D0030E000128
:101308009E250001936F000E00019F210001946F3C
:10131800D50E00019325D96E000E00019421DA6ED6
:10132800030E00019E250001956F000E00019F210C
:101338000001966FCA0E00019525E16E000E0001AE
:101348009621E26EDFCFE7FF00019E4B9F2B000145
:101358009FBFD4D700019F5101E1CBD7DCC0D1F0AA
:10136800DDC0D2F05DD023EEC0F00001C151DE181F
:10137800D8A402D0010E01D0000E0001CD6F0001EB
:10138800CB2B0001C2894CD0F90E0001936F010EDE
:101398000001946F0001D851040D00019351F32608
:1013A80000019451F422C00E0001956F030E000154
:1013B800966F040E00019527000E9623F350000146
:1013C8009527F45000019623010E00019525000190
:1013D8009A6F000E0001962100019B6F020E00011A
:1013E800CB27D8C0CDF09AC0D9FF9BC0DAFFDF5019
:1013F800F00B0001CE6F14D0FF0012000001D7518E
:10140800010AD8B46BD6030AD8B47CD6010AD8B47A
:10141800AAD7070AD8B4B8D7010AD8A41200ECD7BB
:10142800000E0001D76F0001C28712000E013D9126
:10143800050E0001C96F000E0001986F86EC33F0AD
:101448000009D8A407D023EEC0F0DF50D8A4389400
:101458003882120023EEC0F0DF50D8B4389404006C
:10146800D6EC3DF023EEC0F0DF50D8B4A3D0000E88
:101478000001976F010E966F87D0020E0001986FDA
:10148800980E00018B6F000E00018C6F00019651C1
:10149800EBEC32F00009D8B4F3D700019851000101
:1014A800D8A438D03894F90E00018E6F010E0001CF
:1014B8008F6F96C090F097C091F00001D890903748
:1014C80091370001D8909037913700018E51000173
:1014D800902700018F5100019123C00E0001926FE7
:1014E800030E0001936F040E00019227000E932350
:1014F80000019051000192270001915100019323AE
:10150800010E00019225D96E000E00019321DA6EBA
:10151800DF9236D0F90E00018E6F010E00018F6F39
:1015280096C090F097C091F00001D890903791370D
:101538000001D8909037913700018E510001902713
:1015480000018F5100019123C00E0001926F030E1C
:101558000001936F040E00019227000E93230001EF
:101568009051000192270001915100019323010E2F
:1015780000019225D96E000E00019321DA6EDF82F8
:1015880004000001964B972B23EEC0F0DF500001BA
:101598008E6F8F6B0001965100018E5D00018F5197
:1015A800800A0001906F00019751800A000190594C
:1015B800D8B063D7030E0001626FE80E616F02ECCA
:1015C80037F0650E47EC11F00009D8B453D03894C1
:1015D80023EEC0F0DF50ECEC0FF00009D8B445D092
:1015E800F90E00018E6F010E00018F6FC0C390F0DD
:1015F80000019051040D00018E51F32600018F5116
:10160800F422C00E0001916F030E0001926F040EC8
:1016180000019127000E9223F35000019127F45006
:1016280000019223010E00019125D96E000E0001E0
:101638009221DA6EDF82C0C38EF000018E51050D53
:10164800C40EF3240001606F030EF4200001616FE3
:101658000A0E0001626F050E0001636F51C764F046
:1016680052C765F0FDEC2BF005D0C0C3E8FFFF0FB3
:10167800E8CFC0F323EEC0F0DF50D8B473D003EC4A
:1016880039F0000E0001956F010E946F55D0F90ED8
:1016980000018E6F010E00018F6F94C090F095C00D
:1016A80091F00001D890903791370001D890903789
:1016B800913700018E510001902700018F510001E0
:1016C8009123C00E0001926F030E0001936F040E68
:1016D80000019227000E93230001905100019227E8
:1016E8000001915100019323010E00019225D96E4A
:1016F800000E00019321DA6EDFA21AD0000E00015D
:10170800986F94C075F095C076F06DEC06F00009FE
:10171800D8A409D00001982B980500018E6F010EFE
:1017280000018E65EED7010E0001986501D000F02A
:1017380004000001944B952B23EEC0F0DF5000010C
:101748008E6F8F6B0001945100018E5D00018F51E7
:10175800800A0001906F00019551800A000190599C
:10176800D8B095D738821200000E00017A6F000EAB
:101778000001786F000E776F000E00017B6F000E7E
:101788000001796F010100510101015DD8A006D067
:101798000101005100080101012506D00101005195
:1017A800000801010125140F00017B6FAA0E020138
:1017B800006FAA0E0201016F9B0E0201026F580E04
:1017C8000201036F00017B51070D020EF326000E84
:1017D800F422000EF324D96E010EF420DA6EDF50E5
:1017E800090F0201046F000E0201056F080E0201C5
:1017F800066F00017B51070D030EF326000EF4223D
:10180800000EF324D96E010EF420DA6EDECF6DF0EF
:10181800DDCF6EF06EC06DF000016E6B00016D5192
:101828000201076F00017B51070D030EF326000E1E
:10183800F422000EF324D96E010EF420DA6EDF5084
:101848000201086FC8C009F20001C82B00017B51D2
:10185800070D060EF326000EF422000EF324D96EAF
:10186800010EF420DA6EDF5002010A6F0B0E02013E
:101878000A19D8A427D0C10E0001756F030E000104
:10188800766FC0C30BF2C3C30CF275C0D9FF76C024
:10189800DAFFDECF6DF0DDCF6EF06EC06DF00001C7
:1018A8006E6B00016D5102010D6F75C0D9FF76C0D6
:1018B800DAFFDF5002010E6F040E02010427040E46
:1018C8000001796F79C07AF048D0000179510001A0
:1018D8006D6F6E6B00016D1F6E1F6D4B6E2B0001DF
:1018E8007A5100016F6F706B00016D5100016F2715
:1018F80000016E510001702300017B51070D070E96
:10190800F326000EF422000EF324D96E010EF42003
:10191800DA6EDECF71F0DDCF72F000016F51000199
:101928007125D96E0001705100017221DA6E000133
:101938007A510001736F746B0B0E00017327000E50
:101948007423000E00017325E16E020E000174215C
:10195800E26EDFCFE7FF00017A2B00017B51070D14
:10196800020EF326000EF422000EF324D96E010EA7
:10197800F420DA6EDF5000016D6F6E6B0001795153
:1019880000016D27000E6E2300017A5100016F6F70
:10199800706B00016D5100016F5D00017051800A8C
:1019A8000001716F00016E51800A00017159D8A0C1
:1019B8008CD70B0E00017A27040E0001606F020E0F
:1019C8000001616F00017B51070D020EF326000E26
:1019D800F422000EF324D96E010EF420DA6EDF50E3
:1019E80000016D6F6E6B0001795100016D27000ECB
:1019F8006E23070E00016D250001626F000E0001C5
:101A08006E210001636F08EC1EF060C077F061C0C2
:101A180078F000017A51010D000EF324D96E020E00
:101A2800F420DA6E00017851DF6E00017A2B000194
:101A38007A51010D000EF324D96E020EF420DA6EED
:101A480077C0DFFF7AC04BF0010100071200000EDB
:101A58000001676F000E666F000167BF0AD00001C2
:101A6800675106E1650E0001665DD8B0120001D02D
:101A78001200F90E0001606F010E0001616F66C06F
:101A880062F067C063F00001D890623763370001E5
:101A9800D890623763370001605100016227000166
:101AA800615100016323C00E0001646F030E000141
:101AB800656F040E00016427000E65230001625162
:101AC800000164270001635100016523010E000134
:101AD8006425D96E000E00016521DA6EDF92F90ED9
:101AE8000001606F010E0001616F66C062F067C09F
:101AF80063F00001D890623763370001D8906237ED
:101B08006337000160510001622700016151000143
:101B18006323C00E0001646F030E0001656F040E9D
:101B280000016427000E652300016251000164274B
:101B38000001635100016523010E00016425D96E7F
:101B4800000E00016521DA6EDF9AF90E0001606F60
:101B5800010E0001616F66C062F067C063F00001AA
:101B6800D890623763370001D89062376337000135
:101B78006051000162270001615100016323C00E1A
:101B88000001646F030E0001656F040E00016427F5
:101B9800000E6523000162510001642700016351B2
:101BA80000016523010E00016425D96E000E0001B5
:101BB8006521DA6EDF9EF90E0001606F010E0001EB
:101BC800616F66C062F067C063F00001D890623749
:101BD80063370001D8906237633700016051000114
:101BE80062270001615100016323C00E0001646F88
:101BF800030E0001656F040E00016427000E6523C3
:101C0800000162510001642700016351000165234E
:101C1800010E00016425D96E000E00016521DA6EFF
:101C2800DF9CF90E0001606F010E0001616F66C054
:101C380062F067C063F00001D89062376337000133
:101C4800D8906237633700016051000162270001B4
:101C5800615100016323C00E0001646F030E00018F
:101C6800656F040E00016427000E652300016251B0
:101C7800000164270001635100016523010E000182
:101C88006425D96E000E00016521DA6EDF9EF90E1B
:101C98000001606F010E0001616F66C062F067C0ED
:101CA80063F00001D890623763370001D89062373B
:101CB8006337000160510001622700016151000192
:101CC8006323C00E0001646F030E0001656F040EEC
:101CD80000016427000E652300016251000164279A
:101CE8000001635100016523010E00016425D96ECE
:101CF800000E00016521DA6EDF980001664B672B44
:101D0800000167BFB6D60001675101E1ABD61200EA
:101D180013D1010EE8CF54F712000C0EE8CF54F798
:101D2800120023EEC1F0DFBA02D08AA404D00C0E50
:101D3800E8CF54F71200000EE8CF54F712000C0E4B
:101D4800E8CF54F712000C0EE8CF54F7120023EE38
:101D5800C1F0DFAA38BC06D08AB404D0020EE8CF9E
:101D680054F7120038AC0CD023EEC1F0DFA804D031
:101D7800020EE8CF54F712000D0EE8CF54F7120008
:101D880023EEC1F0DFA204D0030EE8CF54F712000F
:101D980023EEC1F0DFA00AD038A004D00E0EE8CFA1
:101DA80054F712000F0EE8CF54F7120039B639A4D1
:101DB80004D0170EE8CF54F71200010EE8CF54F7FD
:101DC800120023EEC1F0DFA604D0150EE8CF54F7B9
:101DD800120023EEC1F0DFAC04D0040EE8CF54F7B4
:101DE8001200150EE8CF54F7120037AC120023EE9C
:101DF800C1F0DFAE04D0180EE8CF54F71200150E6C
:101E0800E8CF54F71200050EE8CF54F7120023EE7E
:101E1800C1F0DFA612001B0EE8CF54F71200010E26
:101E2800E8CF54F7120037A8120023EEC1F0DFA064
:101E380004D0080EE8CF54F71200160EE8CF54F776
:101E48001200010EE8CF54F71200010EE8CF54F744
:101E580012000F0EE8CF54F7120038A404D0060E73
:101E6800E8CF54F71200070EE8CF54F7120038B63F
:101E780004D0030E0001B26504D0090EE8CF54F770
:101E880012000C0EE8CF54F7120038B604D0030E37
:101E98000001B26504D0090EE8CF54F712000C0E09
:101EA800E8CF54F71200130EE8CF54F7120039A008
:101EB80004D00B0EE8CF54F712000A0EE8CF54F7FF
:101EC8001200110EE8CF54F71200110EE8CF54F7A4
:101ED800120023EEC1F0DFB004D0120EE8CF54F7A1
:101EE800120038B604D0030E0001B26504D0090E02
:101EF800E8CF54F7120023EEC1F0DFAA38BC06D0B1
:101F08008AB404D0020EE8CF54F7120038AC0CD0D3
:101F180023EEC1F0DFA804D0020EE8CF54F7120078
:101F28000D0EE8CF54F71200130EE8CF54F7120045
:101F3800010EE8CF54F7120027EE54F0DF50000AE4
:101F4800D8B4E7D6010AD8B4FAD6030AD8B4E5D685
:101F5800010AD8B4F8D6070AD8B447D7010AD8B4C2
:101F680056D7030AD8B483D7010AD8B48ED70F0A34
:101F7800D8B46FD7010AD8B496D7030AD8B4A5D76E
:101F8800010AD8B49ED7070AD8B4E1D6010AD8B452
:101F9800C8D6030AD8B415D7010AD8B45ED71E0A22
:101FA800D8B497D7030AD8B4C3D7010AD8B47FD70F
:101FB800060AD8B438D7030AD8B443D7010AD8B424
:101FC80044D70F0AD8B41FD7030AD8A4120027D7BA
:101FD80000018A6F000E0001866F000E0001876FF6
:101FE800020E00017B6F00018A51050DC40EF32417
:101FF800D96E030EF420DA6EDF5000017C6F000109
:102008008A51050DC00E0001756F030E0001766F31
:10201800040E00017527000E7623F3500001752782
:10202800F45000017623010E00017525D96E000ECB
:1020380000017621DA6EDF5000017D6F00018A51C0
:10204800050DC00E0001756F030E0001766F040EBA
:1020580000017527000E7623F35000017527F45010
:1020680000017623020E00017525D96E000E0001CD
:102078007621DA6EDF5000017E6F00018A51050D6E
:10208800C00E0001756F030E0001766F040E00018B
:102098007527000E7623F35000017527F4500001D0
:1020A8007623030E00017525D96E000E00017621F6
:1020B800DA6EDF5000017F6F000E0001806F8AC06A
:1020C80081F0F90E0001756F010E0001766F0001B5
:1020D8008A51040D00017551F32600017651F4224E
:1020E800C00E0001776F030E0001786F040E000127
:1020F8007727000E7823F35000017727F45000016A
:102108007823020E00017725D96E000E0001782190
:10211800DA6EDECF79F0DDCF7AF07AC079F000019F
:102128007A6B000179510001826FF90E0001756F19
:10213800010E0001766F00018A51040D00017551EE
:10214800F32600017651F422C00E0001776F030ECA
:102158000001786F040E00017727000E7823F350F2
:1021680000017727F45000017823020E000177253B
:10217800D96E000E00017821DA6EDF500001836FFE
:10218800040E00016A6F7B0E00016B6F000E0001E8
:102198006C6F090E96EC28F00009D8A40BD000014A
:1021A800872B87050001756F0001C9510001755D16
:1021B800D8A0E6D70001C9510001875DD8B060D02A
:1021C8000001862B0001E2510001856F846B00013C
:1021D800E351000184130001E0510001896F886B0D
:1021E8000001E151000188130001885100018911A3
:1021F800D8B446D0F90E0001756F010E0001766F54
:1022080000018A51040D00017551F3260001765131
:10221800F422C00E0001776F030E0001786F040EE0
:1022280000017727000E7823F35000017727F45038
:1022380000017823020E00017725D96E000E0001F7
:102248007821DA6E00018451DE1808E10001855119
:10225800DE18D8A403D0020E0001862700018A5197
:102268000001756F766B000188510001751908E14E
:102278000001895100017619D8A402D00001862BEB
:1022880000018651120000017A6F000E0001806F74
:10229800030E00017B6F000E00017C6F000E000131
:1022A8007D6F000E00017E6F7AC07FF0650E000121
:1022B8007F19D8A403D0000E00017F6F040E00011F
:1022C8006A6F7B0E00016B6F000E00016C6F050ECC
:1022D80096EC28F00009D8A409D00001802B8005CD
:1022E8000001756F030E00017565E8D7040E000143
:1022F8008061F6D000017C51D8A4AED0E00E000178
:10230800666F000E0001676F04EC2DF00009D8A479
:1023180005D023EEC0F0630EDF6402D0010E120078
:10232800C0C3E8FF010FE8CFC0F3F90E0001756FD5
:10233800010E0001766FC0C377F000017751040DDC
:1023480000017551F32600017651F422C00E0001F8
:10235800786F030E0001796F040E00017827000ED4
:102368007923F35000017827F45000017923020EF5
:1023780000017825D96E000E00017921DA6EA00ED1
:10238800DE6E0F0EDD6EF90E0001756F010E000195
:10239800766FC0C377F000017751040D00017551C5
:1023A800F32600017651F422C00E0001786F030E67
:1023B8000001796F040E00017827000E7923F3508D
:1023C80000017827F45000017923010E00017825D7
:1023D800D96E000E00017921DA6EDF92000E00013D
:1023E800826F000E816F000182BF08D00001825108
:1023F80075E1040E0001815DD8B070D0E00E0001D7
:102408008125D96E000E00018221DA6EC0C375F0F5
:1024180000017551050DC00E0001766F030E000115
:10242800776F040E00017627000E7723F350000122
:102438007627F450000177230001815100017625A9
:10244800E16E0001825100017721E26EDFCFE7FFE4
:102458000001814B822BC7D7000E0001846F000E4C
:10246800836F000184BF08D00001845137E1040E56
:102478000001835DD8B032D0E00E00018325D96E0B
:10248800000E00018421DA6EC0C376F00001765197
:10249800050DC00E0001776F030E0001786F040E62
:1024A80000017727000E7823F35000017727F450B6
:1024B800000178230001835100017725E16E0001B6
:1024C800845100017821E26EDE50E618D8B402D0BB
:1024D800000E12000001834B842BC3D7010E12009B
:1024E800000E12000400F6EC3DF00E013D91270E9F
:1024F8000001626F100E616F02EC37F00E013D8132
:10250800F8EC3DF0000E0001626F640E616F02ECA2
:1025180037F0040086EC33F00009D8B402D03990C3
:102528001200000E0001836F010E826FDED0F90EDB
:1025380000017C6F010E00017D6F82C07EF083C0B8
:102548007FF00001D8907E377F370001D8907E3722
:102558007F3700017C5100017E2700017D51000179
:102568007F23C00E0001806F030E0001816F040EEF
:1025780000018027000E812300017E510001802781
:1025880000017F5100018123010E00018025D96ED1
:10259800000E00018121DA6EDFA26DD0F90E000174
:1025A8007C6F010E00017D6F82C07EF083C07FF0DA
:1025B8000001D8907E377F370001D8907E377F376B
:1025C80000017C5100017E2700017D5100017F231D
:1025D800C00E0001806F030E0001816F040E000120
:1025E8008027000E812300017E5100018027000111
:1025F8007F5100018123010E00018025D96E000E54
:1026080000018121DA6EDF86F90E00017C6F010E70
:1026180000017D6F82C07EF083C07FF00001D890FA
:102628007E377F370001D8907E377F3700017C5195
:1026380000017E2700017D5100017F23C00E0001AB
:10264800806F030E0001816F040E00018027000EC9
:10265800812300017E510001802700017F51000184
:102668008123010E00018025D96E000E0001812111
:10267800DA6EDF9237D0F90E00017C6F010E00018F
:102688007D6F82C07EF083C07FF00001D8907E37D6
:102698007F370001D8907E377F3700017C510001D9
:1026A8007E2700017D5100017F23C00E0001806F4D
:1026B800030E0001816F040E00018027000E8123A4
:1026C80000017E510001802700017F510001812314
:1026D800010E00018025D96E000E00018121DA6EFD
:1026E800DF9639900001824B832B23EEC0F0DF5038
:1026F80000017C6F7D6B0001825100017C5D00014F
:102708007D51800A00017E6F00018351800A00011B
:102718007E59D8A012000BD7000E00017C6F000E66
:102728007D6F000E7E6F000E7F6F000E0001796FC7
:10273800000E786F000E00017B6F000E7A6F22D0BA
:10274800D89000017A35D96E00017B35DA6E000128
:102758006D51D92600016E51DA22DECF70F0DDCF3F
:1027680071F00001705100017C27000171510001D6
:102778007D23000E00017E23000E00017F2300014F
:102788007A4B7B2B00016F510001706F716B000158
:10279800705100017A5D00017B51800A0001726F5F
:1027A80000017151800A00017259D8A0C9D77CC0B4
:1027B80060F07DC061F07EC062F07FC063F0000110
:1027C8006F510001646F656B666B676BE7EC2AF00D
:1027D80060C078F061C079F0000E00017C6F000ED7
:1027E8007D6F000E7E6F000E7F6F000E0001816FFF
:1027F800000E806F5FD0D89000018035D96E00013F
:102808008135DA6E00016D51D92600016E51DA2248
:10281800DECF70F0DDCF71F078C072F079C073F060
:102828000001721F731F724B732B0001705100015E
:1028380072250001606F00017151000173210001D0
:10284800616FD89000018035D96E00018135DA6E4C
:1028580000016D51D92600016E51DA22DECF74F0E5
:10286800DDCF75F078C076F079C077F00001761F7B
:10287800771F764B772B00017451000176250001F4
:10288800626F00017551000177210001636FB3EC9D
:1028980038F00001605100017C27000161510001FE
:1028A8007D23000E00017E23000E00017F2300011E
:1028B800804B812B00016F510001706F716B00011B
:1028C80070510001805D00018151800A0001726F22
:1028D80000017151800A00017259D8A08CD77CC0C0
:1028E80060F07DC061F07EC062F07FC063F0FF0ED3
:1028F8000001706FFF0E0001716F00016F51000140
:10290800726F736B000170510001722700017151E1
:102918000001732372C064F073C065F00001000EFB
:1029280065BFFF0E666F676FE7EC2AF060C06DF059
:1029380061C06EF01200C4D071EC21F0120038ECC6
:1029480035F05AEC18F0388A120038EC35F05AECA9
:1029580018F0FAEC3DF0120038EC35F05AEC18F0AB
:10296800389C3880379C0B0E0001AE6FB80EAD6FE7
:102978003798030E0001AA6FE80EA96F54C753F7E2
:1029880023EEC2F0DF9023EEC2F0DF92120038ECA3
:1029980035F05AEC18F054C753F7120038EC35F0FC
:1029A8005AEC18F054C753F7120016EC36F0120020
:1029B80038EC35F05AEC18F012006CEC37F01200D5
:1029C80038EC35F05AEC18F054C753F723EEC2F040
:1029D800DF80379C0B0E0001AE6FB80EAD6F3798D5
:1029E800030E0001AA6FE80EA96F120038EC35F04B
:1029F8005AEC18F054C753F723EEC2F0DF82379C25
:102A0800000E0001AE6F000EAD6F3798030E000187
:102A1800AA6FE80EA96F1200CEEC38F0C00E0001C4
:102A2800A56F270EA66F090EA76F000EA86F389026
:102A38001200E9EC3DF03996EA0E0001B56F600E20
:102A4800B46F3994120038963892C00E0001A56F01
:102A5800270EA66F090EA76F000EA86F3890B5EC69
:102A68003BF012009CEC25F03896120038EC35F05B
:102A78005AEC18F0120054C753F738EC35F05AECFA
:102A880018F0120054C753F738EC35F05AEC18F028
:102A98001200000EE8CFC0F3C00E0001666F030EEF
:102AA8000001676F000E0001696F010E686F4AEC44
:102AB80037F0FF00120038EC35F05AEC18F012002D
:102AC80027EE54F0DF50000AD8B436D7010AD8B43C
:102AD80043D7030AD8B433D7010AD8B458D7070A5A
:102AE800D8B45CD7010AD8B463D7030AD8B468D776
:102AF800010AD8B47BD70F0AD8B4A5D7010AD8B42D
:102B0800B1D7030AD8B4BED7010AD8B4B4D7060AD5
:102B1800D8B41BD71F0AD8B4BCD7010AD8B4A6D7D3
:102B2800050AD8B479D7010AD8B483D70F0AD8B41C
:102B38003CD7030AD8B441D7BED70F0E0101B31949
:102B4800D8B405D00E0E0101B319D8A4D4D0D00E34
:102B58000001AB5D070E0001AC59D8B01200AFEC14
:102B68003DF00009D8B437BA01D004D0010E0101F4
:102B7800B46F1200B3C1B4F11200080E0101B46FB2
:102B88001200010E0101B46F1200080E0101B46FAA
:102B980012000101B351010AD8B4EFD7090AD8B419
:102BA800F0D7F3D7080E0101B46F1200010E01012E
:102BB800B46F1200080E0101B46F12000101B35185
:102BC800010AD8B4EFD7090AD8B4F0D7F3D7010E61
:102BD8000101B46F1200070E0101B46F1200070E55
:102BE8000101B46F12000101B351010AD8B4F3D73F
:102BF800060AD8B4ECD7F3D7010E0101B46F12005E
:102C0800070E0101B46F1200070E0101B46F120024
:102C18000101B351010AD8B4F3D7060AD8B4ECD7E6
:102C2800F3D7030E0101B46F1200070E0101B46F50
:102C38001200070E0101B46F12000101B351030A1B
:102C4800D8B4F3D7040AD8B4ECD7F3D7010E0101EE
:102C5800B46F0CD0070E0101B46F1200010E010110
:102C6800B46F1200070E0101B46F12000101B351D5
:102C7800010AD8B4EFD7060AD8B4F0D7F3D7090EAB
:102C88000101B46F1200010E0101B46F1200090EA8
:102C98000101B46F12000101B351010AD8B4EFD792
:102CA800080AD8B4F0D7F3D7030E0101B46F1200A5
:102CB8000A0E0101B46F1200010E0101B46F120077
:102CC800070E0101B46F1200070E0101B46F120064
:102CD8000101B351010AD8B4F3D7020AD8B4E8D72E
:102CE800040AD8B4E1D70D0AD8B4E6D7EDD7010E57
:102CF8000101B46F120027EE53F0DF50010AD8B477
:102D080048D7020AD8B46FD7070AD8B496D7020AA8
:102D1800D8B454D7010AD8B4A9D70D0AD8B4D8D78B
:102D2800010AD8B4B8D71B0AD8B472D7040AD8B4E1
:102D3800DED70C0AD8A4120089D7000E0001706FE4
:102D4800000E00016F6F27EE51F0DE2803E1DE2848
:102D5800D8B41200000169510001662500016B6FAB
:102D680000016A510001672100016C6F54D027EE01
:102D780051F001010151070D030EF326000EF42254
:102D8800000EF324E16E010EF420E26EDECFE6FFC2
:102D9800DDCFE5FF61D00001702B3C0E00017019FA
:102DA800D8A45AD001010151070D020EF326000ED6
:102DB800F422000EF324D96E010EF420DA6E70C0EE
:102DC800DFFF000E0001706F00016F2B0101012B66
:102DD800140E0101006102D00101002B140E010143
:102DE8000119D8A403D0000E0101016F00016F5131
:102DF8003C0D66C06BF067C06CF0F35000016B27A8
:102E0800F45000016C230001695100016B27000197
:102E18006A5100016C2301010151070D070EF326C9
:102E2800000EF422000EF324D96E010EF420DA6E9F
:102E38006BC0DEFF6CC0DDFF01010151070D060EFE
:102E4800F326000EF422000EF324D96E010EF420AE
:102E5800DA6E68C0DFFF8BD7C0C36BF000016B511F
:102E68000001606F616B69C062F06AC063F0B3EC27
:102E780038F000016F513C0D0001705100016C6F7A
:102E88006D6BF35000016C27F45000016D230001B5
:102E9800605100016C5D00016D51800A00016E6F88
:102EA80000016151800A00016E59D8A074D7000151
:102EB80070510001D8B4120001010151070D020E32
:102EC800F326000EF422000EF324D96E010EF4202E
:102ED800DA6E70C0DFFF0101012B140E01010061E1
:102EE80002D00101002B140E01010119D8A412000F
:102EF800000E0101016F1200050E58EC27F00001C9
:102F0800755100017611D8B41200040E58EC27F060
:102F180003010151130D080EF326000EF422000ED2
:102F2800F324D96E030EF420DA6E000175C0DFFFBA
:102F3800000E58EC27F003010151130D020EF32681
:102F4800000EF422000EF324D96E030EF420DA6E7C
:102F5800000175C0DFFF030E58EC27F00301015193
:102F6800130D070EF326000EF422000EF324D96E7B
:102F7800030EF420DA6E000175C0DFFF010E58EC75
:102F880027F003010151130D030EF326000EF4225E
:102F9800000EF324D96E030EF420DA6E000175C01A
:102FA800DEFF000176C0DDFF020E58EC27F00301BA
:102FB8000151130D050EF326000EF422000EF32422
:102FC800D96E030EF420DA6E000175C0DEFF000131
:102FD80076C0DDFF000E0001816F000E806F38D0D3
:102FE80084EC3DF00001805100016025D96E00019C
:102FF800815100016121DA6E070E00018025000170
:103008007C6F000E0001812100017D6F03010151D9
:10301800130D020EF326000EF422000E00017E6F3F
:10302800030E00017F6FF35000017E27F45000016A
:103038007F2300017C5100017E25E16E00017D5156
:1030480000017F21E26EDFCFE7FF0001804B812B7B
:1030580003010151130D020EF326000EF422000E97
:10306800F324D96E030EF420DA6EDF5000017C6F72
:103078007D6B00017C510001805D00018151800A57
:1030880000017E6F00017D51800A00017E59D8A0A1
:10309800A7D70301002B0301012B090E0301011916
:1030A800D8A41200000E0301016F120046D0ADEC47
:1030B8002DF0ADEC2CF0000E0101BF6F000EBE6FBD
:1030C80056D02DEC28F06FEC22F0000E0101C66FEF
:1030D800000EC56F4CD0B8EC33F0DFEC30F0000ECA
:1030E8000101CD6F000ECC6F42D0BCEC1CF0A1ECFE
:1030F80015F0000E0101B86F000EB76F38D0ABECB9
:1031080034F0EAEC33F0000E0101D46F000ED36FF7
:103118002ED0C4EC27F045EC2BF0000E0101DB6F3C
:10312800000EDA6F24D09EEC1AF0E8EC22F0000EC4
:103138000101E26F000EE16F1AD00101B251000ADD
:10314800D8B415D0010AD8B4B2D7020AD8B4D7D7A0
:10315800070AD8B4CAD7010AD8B4BDD70C0AD8B45C
:10316800B0D7020AD8B4D5D7060AD8B4DCD701013B
:10317800B151D8B44BD004000101B107A7C1B2F1D5
:10318800000E0101FB6F000EFA6F1FD0010E010146
:10319800FA250001A06F000E0101FB210001A16FBB
:1031A800A70E0001A025D96E010E0001A121DA6E3B
:1031B800A70E0101FA25E16E010E0101FB21E26E65
:1031C800DFCFE7FF0101FA4BFB2B0101B1510001F1
:1031D800A06FA16B0001A0510101FA5D0101FB5133
:1031E800800A0001A26F0001A151800A0001A259C2
:1031F800D8A0CCD70101B151010DA70EF324D96E87
:10320800010EF420DA6E000EDF6E1200000E0101CE
:10321800B26F000E0101CD6F000ECC6F000E0101E0
:10322800E26F000EE16F000E0101D46F000ED36F44
:10323800000E0101BF6F000EBE6F000E0101C66FC8
:10324800000EC56F000E0101DB6F000EDA6F120071
:10325800000E00017F6F000E7E6F000E00017B6F75
:10326800000E7A6F90D0000E00017D6F070E7C6F04
:1032780000017DBF85D000017A5100016F25D96E0C
:1032880000017B5100017021DA6EDF500001726F7E
:10329800000E0001676F020E666F7CC068F07DC08B
:1032A80069F05FEC31F0000172150001736F000ED8
:1032B8000001676F020E666F7CC068F07DC069F020
:1032C8005FEC31F000017319D8A402D0010E01D0CF
:1032D800000E0001746F00017FAF02D0010E01D013
:1032E800000E0001741BD8B402D0010E01D0000EEC
:1032F8000001786F796B0001785100017911D8B419
:103308001FD0FF0E0001726F7F0E0001736F7EC029
:1033180074F07FC075F0000172510001741700014C
:10332800735100017517D890000174377537210E55
:103338000001741900017E6F100E0001751919D073
:10334800FF0E0001726F7F0E0001736F7EC074F074
:103358007FC075F0000172510001741700017351AC
:1033680000017517D8900001743500017E6F0001C7
:10337800753500017F6F00017C07D8A07D0778D7DD
:1033880000017A4B7B2B000171510001726F736B46
:103398000001725100017A5D00017B51800A000131
:1033A800746F00017351800A00017459D8A05BD76B
:1033B8007EC076F07FC077F076C06FF077C070F08F
:1033C80012004F0E076E000E086E78EC2FF0000901
:1033D800D8A4120023EEC0F0090EDF6401D0120059
:1033E800C0C3E8FF010FE8CFC0F3F90E156E010E58
:1033F800166EC0C317F01750040D1550F32616505B
:10340800F422C00E186E030E196E040E1826000E54
:103418001922F3501826F4501922020E1824D96ED6
:10342800000E1920DA6EA00EDE6E0F0EDD6E000E95
:103438001B6E000E1A6E1BBE06D01B502BE1040E2D
:103448001A5CD8B027D0020E1A24156E000E1B2065
:10345800166E4D0E1524D96E000E1620DA6EC0C3F6
:1034680017F01750050DC00E186E030E196E040ED6
:103478001826000E1922F3501826F45019221A5053
:103488001824E16E1B501920E26EDFCFE7FF1A4ABD
:103498001B2AD1D7F90E156E010E166EC0C317F090
:1034A8001750040D1550F3261650F422C00E186E4E
:1034B800030E196E040E1826000E1922F350182652
:1034C800F4501922010E1824D96E000E1920DA6E54
:1034D800DF84C0C315F01550050DC40EF324016E2A
:1034E800030EF420026E0A0E036E050E046E51C719
:1034F80005F052C706F055EC2CF0F90E156E010ECA
:10350800166EC0C317F01750040D1550F326165049
:10351800F422C40EF324016E030EF420026E0B0E87
:10352800036E040E046E51C705F052C706F055EC41
:103538002CF0120093D0000E0101E06F000EDF6F37
:103548001200000E0101E06F010EDF6F1200000E85
:103558000001C06F000E0101E06F010EDF6F120065
:103568000E01EE8F0E01EE890E012D835FEC38F00F
:10357800010E0101E06F2C0EDF6F1200000E010139
:10358800E06F010EDF6F12000001C02B0E01EE9FED
:103598000E01EE990E012D930001C295000E010156
:1035A800E06F010EDF6F12000E01EE8F0E01EE8943
:1035B8000E012D83000E0101E06F010EDF6F120076
:1035C8000E01EE8F0E01EE890E012D83000E010112
:1035D800E06F010EDF6F12000E012D935FEC08F013
:1035E8000001C295000E0101E06F010EDF6F1200AD
:1035F8000CEC1CF00E01EE9F0E01EE99000E01017D
:10360800E06F000EDF6F1200C40E0001666F030E3C
:103618000001676F0A0E0001686F000E00016A6FF3
:10362800050E696FA1EC16F0BD0E0001666F050E60
:103638000001676F0B0E0001686F000E00016A6FD2
:10364800040E696FA1EC16F0000E0101E06F010E87
:10365800DF6F0001C2990001C29712000101DD511C
:10366800010AD8B468D7030AD8B4AAD7010AD8B4CB
:10367800B3D7070AD8B4BCD7010AD8B495D7030A78
:10368800D8B46ED7010AD8B47FD70F0AD8B476D782
:10369800010AD8B456D7030AD8B459D7010AD8A40E
:1036A8001200B2D7050E0001C96F000E0001946F19
:1036B80023EEC0F0DF50D8B4A3D0000E0001966FFF
:1036C800010E956F87D0020E0001946F940E0001D1
:1036D8008B6F000E00018C6F00019551EBEC32F0FE
:1036E8000009D8B4F3D7000194510001D8A438D008
:1036F8003894F90E00018E6F010E00018F6F95C08E
:1037080090F096C091F00001D89090379137000161
:10371800D8909037913700018E5100019027000111
:103728008F5100019123C00E0001926F030E00011A
:10373800936F040E00019227000E9323000190510D
:10374800000192270001915100019323010E00010D
:103758009225D96E000E00019321DA6EDF9236D0E1
:10376800F90E00018E6F010E00018F6F95C090F069
:1037780096C091F00001D890903791370001D89009
:103788009037913700018E510001902700018F5129
:1037980000019123C00E0001926F030E0001936F88
:1037A800040E00019227000E93230001905100019E
:1037B80092270001915100019323010E00019225E7
:1037C800D96E000E00019321DA6EDF820400000139
:1037D800954B962B23EEC0F0DF5000018E6F8F6B58
:1037E8000001955100018E5D00018F51800A000192
:1037F800906F00019651800A00019059D8B063D7A4
:1038080023EEC0F0DF50D8B4120003EC39F01200F8
:10381800AA0E0001856FCBC086F0CCC087F0000EE1
:103828000001916F000E906F29D0030E00019025C2
:103838000001806F000E000191210001816FCA0E06
:1038480000018025D96E000E00018121DA6E030E79
:10385800000190250001826F000E000191210001F6
:10386800836F850E00018225E16E000E0001832121
:10387800E26EDFCFE7FF0001904B912BFB0E0001BA
:10388800806FFF0E0001816F0001CB510001826F34
:10389800836B0001805100018227000181510001E2
:1038A8008323000182510001905D00019151800A3B
:1038B8000001846F00018351800A00018459D8A057
:1038C800B4D7850E00016F6F000E0001706F000104
:1038D800CB51FE0F0001716F2CEC19F06FC0D3F0C3
:1038E80070C0D4F0FE0E0001806FFF0E0001816FE2
:1038F8000001CB510001826F836B000180510001F0
:1039080082270001815100018323850E0001822551
:10391800D96E000E00018321DA6E0001D451DF6EEA
:10392800FF0E0001806FFF0E0001816F0001CB5177
:103938000001826F836B0001805100018227000122
:10394800815100018323850E00018225D96E000E66
:1039580000018321DA6ED3C0DFFF850E0001606F9E
:10396800000E0001616FCBC062F053EC33F012001F
:1039780078D0CEEC3DF0030E0101B66F840EB56F22
:103988001200CEEC3DF0030E0101B66F840EB56F48
:103998001200CEEC3DF0000E0101B66F640EB56F5B
:1039A8001200CEEC3DF0000E0101B66F640EB56F4B
:1039B8001200CAEC3DF0000E0101B66F640EB56F3F
:1039C8001200D2EC3DF0000E0101B66F640EB56F27
:1039D8001200D6EC3DF0000E0101B66F640EB56F13
:1039E8001200CAEC3DF0000E0101B66F640EB56F0F
:1039F8001200D2EC3DF0000E0101B66F640EB56FF7
:103A08001200D6EC3DF0000E0101B66F640EB56FE2
:103A18001200CAEC3DF0030E0101B66FE80EB56F57
:103A28001200D6EC3DF0030E0101B66FE80EB56F3B
:103A38001200D2EC3DF0030E0101B66FE80EB56F2F
:103A48001200D2EC3DF0000E0101B66F0A0EB56F00
:103A58001200CAEC3DF0000E0101B66F0A0EB56FF8
:103A680012000101B351010AD8B483D7030AD8B4AC
:103A780088D7010AD8B48DD7070AD8B4CAD7010A9B
:103A8800D8B4D7D7030AD8B4CCD7010AD8B491D7B9
:103A98000F0AD8B496D7010AD8B49BD7030AD8B46A
:103AA800A0D7010AD8B4A5D7070AD8B4AAD7010A5B
:103AB800D8B477D7030AD8B4C4D7010AD8A4120057
:103AC800C8D7000E0001BD6F000EBC6F0F012A8F12
:103AD800000E0001616F040E606F7BEC34F0050E80
:103AE8003FEC36F00009D8A408D00001BD5105E12B
:103AF800C80E0001BC5DD8A0F2D70001BD5105E198
:103B0800C80E0001BC5DD8A004D00F012A9F000E8A
:103B18001200000E0001BD6F000EBC6F050E4BECCD
:103B280034F00009D8A408D00001BD5105E1640EA5
:103B38000001BC5DD8A0F2D70001BD5105E1640EBB
:103B48000001BC5DD8A004D00F012A9F000E12000E
:103B5800000E0001BD6F000EBC6F000E0001C66FA5
:103B6800000E0001B96F000EB86F000E0001B76FAC
:103B7800010EB66F000E0001C56F000E0001C36F85
:103B88002DD0050E3FEC36F00009D8A408D000016E
:103B9800BD5105E1320E0001BC5DD8A0F2D7000E80
:103BA8000001C66F0001B6510001B711D8B41CD08E
:103BB800050E4BEC34F00009D8A408D00001BD5123
:103BC80005E1320E0001BC5DD8A0F2D7000E00015D
:103BD800BD6F000EBC6F000E0001C66F0001B6512C
:103BE8000001B711D8A4CDD7000E0001B76F000EA1
:103BF800B66F0F012A9F000E0001616F030E606F00
:103C08007BEC34F0010E120000016B696C69000155
:103C1800625100016311D8A409D000016B1D000195
:103C2800606F00016C1D0001616F1200000E000141
:103C3800686F60C0D9FF61C0DAFFDF500001646FB0
:103C4800000164510001696F6A6B0001604B612BD0
:103C5800070E0001686501D041D0010E0001691509
:103C68000001646F000E00016A150001656F010E06
:103C780000016B150001666F000E00016C15000154
:103C8800676F000164510001661B00016551000166
:103C9800671B0001665100016711D8B414D0D89091
:103CA80000016C310001656F00016B310001646F28
:103CB800080E0001641900016B6F840E000165197C
:103CC80000016C6F04D00001D8906C336B33000195
:103CD800682B0001D8906A336933BAD700016207AC
:103CE800D8A063070001625100016311D8A49ED7D0
:103CF80000016B1F6C1F6BC069F06CC06AF069C073
:103D080064F06AC065F065C064F00001656B00018D
:103D180064516BC066F06CC067F066C067F0000164
:103D2800666B0001661100016B6F000167510001AD
:103D38006C6F6BC060F06CC061F0120021EEE4F0B3
:103D480010EE68F0150EDBCFE3FFE806FCE2000E8C
:103D580000017F6F080E7E6F7EC060F07FC061F04B
:103D6800030E0001636FE80E626F23EC31F000016F
:103D78006051300F0001776FD00E000177250001E8
:103D8800606F0001616BFF0E6123030E0001636F1A
:103D9800E80E626FB3EC38F00001605100017E5FFD
:103DA8000001615100017F5B7EC060F07FC061F05F
:103DB800000E0001636F640E626F23EC31F00001A6
:103DC8006051300F0001786FD00E00017825000196
:103DD800606F0001616BFF0E6123000E0001636FCD
:103DE800640E626FB3EC38F00001605100017E5F31
:103DF8000001615100017F5B7EC060F07FC061F00F
:103E0800000E0001636F0A0E626F23EC31F00001AF
:103E18006051300F0001796FD00E00017925000143
:103E2800606F0001616BFF0E6123000E0001636F7C
:103E38000A0E626FB3EC38F00001605100017E5F3A
:103E48000001615100017F5B00017E51300F0001CC
:103E58007A6F0001C295680E0001606F000E0001C4
:103E6800616F160E0001626F53EC33F012007B8213
:103E78007B8C8BB6FED7958A91CF67F0000E916E3A
:103E8800000E0001686F050E0001686501D012D0B0
:103E980094A0FED700016851010D4F0EF324D96E8E
:103EA800020EF420DA6E91CFDFFF000E916E000152
:103EB800682BE9D77B92959A02014F510001666FF2
:103EC800656B646B60C0D9FF61C0DAFF00016451A3
:103ED800DE126551DE126651DE12020150510001F8
:103EE800646F656B666B65C066F064C065F0000161
:103EF800646B60C0D9FF61C0DAFF00016451DE1253
:103F08006551DE126651DE12020151510001646FE3
:103F1800656B666B60C0D9FF61C0DAFF0001645150
:103F2800DE126551DE126651DE12020152510001A5
:103F3800666F656B646B62C0D9FF63C0DAFF00010E
:103F48006451DE126551DE126651DE1202015351D0
:103F58000001646F656B666B65C066F064C065F0F0
:103F68000001646B62C0D9FF63C0DAFF00016451CD
:103F7800DE126551DE126651DE1202015451000153
:103F8800646F656B666B62C0D9FF63C0DAFF0001BE
:103F98006451DE126551DE126651DE121200000E07
:103FA8000001926F00019251010D850EF324D96E24
:103FB800000EF420DA6EAA0EDF6E0001922B0001CB
:103FC8009251010D850EF324D96E000EF420DA6E9D
:103FD800D6C0DFFF0001922B00019251010D850E22
:103FE800F324D96E000EF420DA6ED7C0DFFF00018B
:103FF800922B000E0001916F000E906F22D0030EDD
:10400800000190250001806F000E00019121000140
:10401800816FD50E00018025D96E000E0001812127
:10402800DA6E00019251010D850EF324E16E000E47
:10403800F420E26EDFCFE7FF0001922B0001904BE6
:10404800912BFB0E0001806FFF0E0001816F0001B4
:10405800D6510001826F836B0001805100018227D5
:104068000001815100018323000182510001905D0C
:1040780000019151800A0001846F00018351800A78
:1040880000018459D8A0BBD7850E00016F6F000EC0
:104098000001706F92C071F02CEC19F00001DE5134
:1040A80000016F1908E10001DF5100017019D8A45F
:1040B80002D0010E1200000E1200000E0001736FF4
:1040C800030100510301015DD8A006D0030100518E
:1040D80000080301012506D003010051000803016F
:1040E80001250A0F0001736F00017351130D030EB0
:1040F800F326000EF422000EF324D96E030EF420EA
:10410800DA6EDECF51F7DDCF52F7398223EEC2F0F7
:10411800DF863AD0398258D0388656D0000173519C
:10412800130D050EF326000EF422000EF324D96EAB
:10413800030EF420DA6E080EDE18DE10D8A444D080
:10414800399842D0BD0E0001666F050E0001676FF9
:104158000B0E0001686F000E00016A6F040E696F94
:10416800A1EC16F031D0C40E0001666F030E0001F9
:10417800676F0A0E0001686F000E00016A6F050E76
:10418800696FA1EC16F020D000017351130D080ED1
:10419800F326000EF422000EF324D96E030EF42049
:1041A800DA6EDF50070AD8B4DED70D0AD8B4B6D70E
:1041B800010AD8B4B3D72E0AD8B4AED70C0AD8B4EB
:1041C800A9D7690AD8B4BED70301000712007B82B9
:1041D8007B8C8BB6FED7958A91CF08F0000E916E36
:1041E800000E096E050E096401D010D094A0FED708
:1041F8000950010D4F0EF324D96E020EF420DA6E29
:1042080091CFDFFF000E916E092AECD77B92959A29
:1042180002014F51076E066A056A01C0D9FF02C044
:10422800DAFF0550DE120650DE120750DE120201D8
:104238005051056E066A076A06C007F005C006F009
:10424800056A01C0D9FF02C0DAFF0550DE12065028
:10425800DE120750DE1202015151056E066A076A26
:1042680001C0D9FF02C0DAFF0550DE120650DE1287
:104278000750DE1202015251076E066A056A03C032
:10428800D9FF04C0DAFF0550DE120650DE120750CF
:10429800DE1202015351056E066A076A06C007F06E
:1042A80005C006F0056A03C0D9FF04C0DAFF05504F
:1042B800DE120650DE120750DE1202015451056E5E
:1042C800066A076A03C0D9FF04C0DAFF0550DE1288
:1042D8000650DE120750DE121200CEEC3DF0E9EC7B
:1042E8003DF0F4EC3DF0030E0001626FE80E616FE3
:1042F80002EC37F0F6EC3DF0F2EC3DF05CEC3CF013
:10430800BD9EB79EB19E0F012A9F0E01299B0E01EB
:104318002991C40E0001666F030E0001676FC0C3C8
:104328006CF0010E00016C250001606F0001616BEB
:10433800000E6123000E0001636F050E626FB3EC7F
:1043480038F060C068F061C069F04AEC37F0BD0E23
:104358000001666F050E0001676F23EEC0F0DF50A5
:1043680000016C6F6D6B0001D8906C376D370001E0
:10437800D8906C376D37040E00016C250001686F0A
:10438800000E00016D210001696F4AEC37F0C00E84
:104398000001666F030E0001676F000E0001696F70
:1043A800010E686F4AEC37F0510E0001666F070E78
:1043B8000001676F000E0001696F020E686F4AEC1A
:1043C80037F076EC3DF0609E0E01C49FF2840E013A
:1043D800429F000EE8CF54F70E013D9103001200F2
:1043E800000E0001766F000E0001776F000E0001CD
:1043F800786F000E0001796F000E00017A6F000ED1
:1044080000017B6FC2EC3AF0580E0001706F9B0EF2
:104418000001716F000E0001726F960E0001736F3C
:10442800920E0001746F770E0001756F948C955091
:10443800F00B0509956E70C065F071C066F072C02A
:1044480067F073C068F074C069F075C06AF05BEC1F
:104458002DF070C065F071C066F072C067F073C06F
:1044680068F074C069F075C06AF05BEC2DF0760EE8
:104478000001606F000E0001616F790E0001626F2C
:10448800000E0001636F3BEC1FF000017651000144
:1044980070190BE1000177510001711906E1000163
:1044A800785100017219D8B412D000017951000175
:1044B80073190BE100017A510001741906E100013A
:1044C8007B5100017519D8B402D0000E1200B7EC68
:1044D8003CF0010E12006FD01DEC39F00009D8B481
:1044E80004D0020E0101C26F1200030E0101C26F57
:1044F800120043EC24F082C094F083C095F023EEC0
:10450800C1F0DFAE1CD00001955109E11F0E00017A
:10451800945DD8B004D0050E0101C26F1200250EBB
:104528000001945D030E00019559D8B004D0040E23
:104538000101C26F1200060E0101C26F120023EEC4
:10454800C1F0DFAC1AD00001945100019511D8A434
:1045580004D0050E0101C26F1200430E0001945DE4
:10456800030E00019559D8B004D0040E0101C26FA2
:104578001200060E0101C26F1200000194510001E1
:104588009511D8A404D0050E0101C26F1200250EA2
:104598000001945D030E00019559D8B004D0040EB3
:1045A8000101C26F1200060E0101C26F1200010E56
:1045B8000101C26F12000101C151010AD8B48CD7A0
:1045C800020AD8B496D7F3D753D00001C2A304D0B7
:1045D800060E0101DE6F1200020E0101DE6F1200ED
:1045E8000001C051D8A404D00A0E0101DE6F1200E8
:1045F800060E0101DE6F1200060E0101DE6F1200C9
:10460800080E0101DE6F12000001C2A504D0070EDA
:104618000101DE6F12000A0E0101DE6F1200010EA9
:104628000101DE6F1200020E0101DE6F12000001AF
:10463800C2A51200030E0101DE6F12000001C2A71D
:1046480004D0040E0101DE6F1200010E0101DE6FBD
:1046580012000001C2A904D00B0E0101DE6F120086
:10466800010E0101DE6F1200010E0101DE6F120062
:104678000101DD51010AD8B4A8D7030AD8B4D7D7A5
:10468800010AD8B4DBD7070AD8B4E3D7010AD8B4EB
:10469800CAD7030AD8B4B4D7010AD8B4C0D70F0A06
:1046A800D8B4B2D7010AD8B49BD7030AD8B4A4D7D0
:1046B800DBD7030E0001916FE80E906FCCEC39F058
:1046C800140E37EC3BF0000E646E000E636E54D08F
:1046D800608060B0FED7000E0001936F000E926FED
:1046E800000193BF08D00001935133E1040E00018B
:1046F800925DD8B02ED0D89000019235D96E0001C5
:104708009335DA6E860ED926000EDA2292C084F02E
:1047180093C085F0D890000184378537020E0001D8
:104728008427000E8523860E00018425E16E000E85
:1047380000018521E26EDECFE6FFDDCFE5FF000157
:10474800924B932B000193BFD6D70001935101E1FF
:10475800CDD763CF86F064CF87F0860E00016D6FEA
:10476800000E00016E6F050E00016F6F90EC13F0E4
:104778006DC090F06EC091F000019151A9E1650EF5
:104788000001905DD8B0A4D7609E0E01C49F63CF8E
:1047980082F064CF83F01200030E0001916FE80EDF
:1047A800906FE3EC39F0140E37EC3BF0000E646EBA
:1047B800000E636E54D0608060B0FED7000E00011A
:1047C800936F000E926F000193BF08D000019351C0
:1047D80033E1040E0001925DD8B02ED0D8900001CC
:1047E8009235D96E00019335DA6E860ED926000E01
:1047F800DA2292C084F093C085F0D8900001843703
:104808008537020E00018427000E8523860E0001DD
:104818008425E16E000E00018521E26EDECFE6FF01
:10482800DDCFE5FF0001924B932B000193BFD6D754
:104838000001935101E1CDD763CF86F064CF87F0B3
:10484800860E00016D6F000E00016E6F050E0001EF
:104858006F6F90EC13F06DC090F06EC091F0000196
:104868009151A9E1650E0001905DD8B0A4D7609E72
:104878000E01C49F63CF82F064CF83F01200030E51
:104888000001916FE80E906FFAEC39F0140E37ECD6
:104898003BF0000E646E000E636E54D0608060B012
:1048A800FED7000E0001936F000E926F000193BFB8
:1048B80008D00001935133E1040E0001925DD8B095
:1048C8002ED0D89000019235D96E00019335DA6E5A
:1048D800860ED926000EDA2292C084F093C085F0A5
:1048E800D890000184378537020E00018427000E16
:1048F8008523860E00018425E16E000E00018521C6
:10490800E26EDECFE6FFDDCFE5FF0001924B932B91
:10491800000193BFD6D70001935101E1CDD763CFF2
:1049280086F064CF87F0860E00016D6F000E0001DF
:104938006E6F050E00016F6F90EC13F06DC090F074
:104948006EC091F000019151A9E1650E0001905DE2
:10495800D8B0A4D7609E0E01C49F63CF82F064CF05
:1049680083F01200030E0001916FE80E906F11ECB6
:104978003AF0280E37EC3BF0000E646E000E636EC2
:1049880054D0608060B0FED7000E0001936F000E17
:10499800926F000193BF08D00001935133E1040ED8
:1049A8000001925DD8B02ED0D89000019235D96E12
:1049B80000019335DA6E860ED926000EDA2292C0EF
:1049C80084F093C085F0D890000184378537020EB3
:1049D80000018427000E8523860E00018425E16EE0
:1049E800000E00018521E26EDECFE6FFDDCFE5FF98
:1049F8000001924B932B000193BFD6D7000193512E
:104A080001E1CDD763CF86F064CF87F0860E000131
:104A18006D6F000E00016E6F050E00016F6F90EC58
:104A280013F06DC090F06EC091F000019151A9E1B2
:104A3800650E0001905DD8B0A4D7609E0E01C49F9A
:104A480063CF82F064CF83F01200030E0001916FF0
:104A5800E80E906F28EC3AF0280E37EC3BF0000E89
:104A6800646E000E636E54D0608060B0FED7000E96
:104A78000001936F000E926F000193BF08D00001F0
:104A8800935133E1040E0001925DD8B02ED0D89036
:104A980000019235D96E00019335DA6E860ED9265B
:104AA800000EDA2292C084F093C085F0D8900001FD
:104AB80084378537020E00018427000E8523860E71
:104AC80000018425E16E000E00018521E26EDECF33
:104AD800E6FFDDCFE5FF0001924B932B000193BF6A
:104AE800D6D70001935101E1CDD763CF86F064CFCB
:104AF80087F0860E00016D6F000E00016E6F050EC7
:104B080000016F6F90EC13F06DC090F06EC091F0E3
:104B180000019151A9E1650E0001905DD8B0A4D7BC
:104B2800609E0E01C49F63CF82F064CF83F01200B1
:104B3800000E0001976FCAEC3DF03888B8EC36F0EB
:104B4800398004000B0E0001626FB80E616F02EC31
:104B580037F00400FEEC3CF00400389856EC1BF0EB
:104B68000AD0B2C097F0030E0001626FE80E616FC1
:104B780002EC37F004000001B2510001975DD8B093
:104B880004D0130E0001B265ECD70E013D91130E4F
:104B98000001B2650CD08DEC37F01FEC33F0270E16
:104BA8000001626F100E616F02EC37F00BD0399084
:104BB80009D0B2C097F0030E0001626FE80E616F72
:104BC80002EC37F004000001B2510001975DD8A053
:104BD800F0D70E013D81040076EC12F07E96BD0EF2
:104BE8000001666F050E0001676F0B0E0001686F0C
:104BF800000E00016A6F040E696FA1EC16F061ECFB
:104C080029F03888000E0001B26F3896E9EC38F0C8
:104C18001200000E436E000E426E85967D86000ED1
:104C2800036E020E026E97EC38F07D96640E98ECD7
:104C38003BF0550E66EC35F038EC3DF09CEC39F065
:104C4800476E8596A00E66EC35F038EC3DF09CEC8E
:104C580039F0476E85962D5066EC35F02E50D8A465
:104C68000BD02FEC3DF09CEC39F0476E7D96000E92
:104C78000A6E000E096E120038EC3DF09CEC39F01B
:104C8800476E85963004D8A411D0315066EC35F0C3
:104C980038EC3DF09CEC39F0476E8596325066EC66
:104CA80035F038EC3DF09CEC39F0476E3350D8A421
:104CB8000BD085860E01AF87C1EC2FF00B6E0B5021
:104CC800426E436A859603D02F5066EC35F0859680
:104CD8002FEC3DF09CEC39F0476E000E036E010E90
:104CE800026E97EC38F042C009F043C00AF0120097
:104CF800000E436E000E426E85947D84000E036E96
:104D0800020E026E97EC38F07D94640E98EC3BF03E
:104D1800550E93EC35F04AEC3DF0B4EC39F0476EA3
:104D28008594A00E93EC35F04AEC3DF0B4EC39F0E4
:104D3800476E85942D5093EC35F02E50D8A40BD0A7
:104D480041EC3DF0B4EC39F0476E7D94000E0A6EEC
:104D5800000E096E12004AEC3DF0B4EC39F0476ED3
:104D680085943004D8A411D0315093EC35F04AEC36
:104D78003DF0B4EC39F0476E8594325093EC35F041
:104D88004AEC3DF0B4EC39F0476E3350D8A40BD060
:104D980085840E01AF85C1EC2FF00B6E0B50426E6F
:104DA800436A859403D02F5093EC35F0859441ECF9
:104DB8003DF0B4EC39F0476E000E036E010E026E42
:104DC80097EC38F042C009F043C00AF012000E0117
:104DD800389B378653EC30F00001AD510001AE111D
:104DE800D8A402D0378C04D00001AD07D8A0AE07F4
:104DF8000001AB510001AC11D8A402D0378A04D00D
:104E08000001AB07D8A0AC070001A9510001AA1105
:104E1800D8A402D0378804D00001A907D8A0AA07CF
:104E28000001A3510001A411D8A402D0378E04D0E8
:104E38000001A307D8A0A4070001A5510001A611ED
:104E48000001A7110001A811D8A402D0388006D00B
:104E58000001A507000EA65BA75BA85B0001B45183
:104E68000001B511D8A402D0398604D00001B407D6
:104E7800D8A0B5070001AF510001B011D8A40FD0D8
:104E880039B204D023EEC2F0DF9602D0E2EC3DF056
:104E980039920F0E0001B06FA00EAF6F1200000123
:104EA800AF07D8A0B00712000001796F000E00010B
:104EB8007B6F000E7A6F4AD0F70E02014F25000172
:104EC800756F0001766BFF0E7623120002015051B8
:104ED8000001786F776B0001775100017A130001A8
:104EE800785100017B130201515100017A137AC0F5
:104EF80075F07BC076F01200020152510001786F04
:104F0800776B0001775100017A1300017851000195
:104F18007B130201535100017A137AC075F07BC0EC
:104F280076F0120054C275F00001766B120055C27B
:104F380075F00001766B1200A2EC2BF00001776F80
:104F4800000177510001756F766B120000017951ED
:104F5800000AD8B4B1D7010AD8B4B8D7030AD8B46C
:104F6800CBD7010AD8B4DED7070AD8B4E0D7010AEC
:104F7800D8B4E2D7000E0001766F000E756F1200EC
:104F880050D07982000E0101D96F640ED86F1200DB
:104F9800270E0101D96F100ED86F12008086000EFF
:104FA8000101D96F640ED86F1200798280960F0EB6
:104FB8000101D96FA00ED86F23EEC1F0DF8823EE70
:104FC800C1F0DF94388C1200000E0101D96F640E15
:104FD800D86F80967F8412007F940F0E0101D96FDD
:104FE800A00ED86F23EEC1F0DF9823EEC1F0DF8466
:104FF800388C12000F0E0101D96FA00ED86F23EE66
:10500800C1F0DF9823EEC1F0DF947F947992809607
:10501800388C389A1200000E0101D96F010ED86F32
:1050280012000101D651010AD8B4ABD7050AD8B489
:10503800BCD70C0AD8B4D0D7020AD8B4DBD7060A32
:10504800D8B4C2D7010AD8B4A3D7030AD8B4A6D70C
:10505800E2D756D0000E0101C46F310EC36F23EEA4
:10506800C1F0DF8623EEC1F0DF9C23EEC1F0DF9EA6
:10507800000E0001C76F1200000E0101C46F010E7F
:10508800C36F0001C72B1200000E0101C46F300E60
:10509800C36F23EEC1F0DF9623EEC1F0DF8C23EE61
:1050A800C1F0DF9E000E0001C76F1200000E010163
:1050B800C46F300EC36F23EEC1F0DF9623EEC1F04C
:1050C800DF8C23EEC1F0DF8E000E0001C76F1200E7
:1050D800000E0101C46F300EC36F23EEC1F0DF96DE
:1050E80023EEC1F0DF9C23EEC1F0DF9E000E00012D
:1050F800C76F1200000E0101C46F010EC36F1200CA
:105108000101C151020AD8B4A5D7010AD8B4B4D74D
:10511800070AD8B4B9D7010AD8B4C8D7030AD8B48B
:10512800D7D7E8D70001706F000E0001616F320E0B
:10513800606F7BEC34F0000E0001726F000E716F2F
:1051480010D00001715100016B25D96E0001725118
:1051580000016C21DA6EDF507DEC32F00001714BFA
:10516800722B0001705100016D6F6E6B00016D5163
:105178000001715D00017251800A00016F6F00012A
:105188006E51800A00016F59D8A0DBD7000E0001CC
:10519800746F000E736F15D065EC1DF00009D8B45C
:1051A8000BD0E00E00017325D96E000E00017421AA
:1051B800DA6EC4C0DFFF02D0000E12000001734B8C
:1051C800742B00016A5100016D6F6E6B00016D5107
:1051D8000001735D00017451800A00016F6F0001C6
:1051E8006E51800A00016F59D8A0D6D7010E12005F
:1051F800C00E0001666F030E0001676F000E00010C
:10520800696F010E686F68EC36F0C0C3E8FFFF0AEB
:10521800D8A403D0000EE8CFC0F3510E0001666F8A
:10522800070E0001676F000E0001696F020E686FBC
:1052380068EC36F0C40E0001666F030E0001676F5C
:10524800C0C36DF0010E00016D250001606F000103
:10525800616B000E6123000E0001636F050E626F23
:10526800B3EC38F060C068F061C069F068EC36F003
:10527800BD0E0001666F050E0001676F23EEC0F0DA
:10528800DF5000016D6F6E6B0001D8906D376E377F
:105298000001D8906D376E37040E00016D250001AE
:1052A800686F000E00016E210001696F68EC36F02E
:1052B8002BEC0DF027EC2AF01200CF0E0001606FE6
:1052C800010E0001616F030E0001626FDBEC34F028
:1052D800C80E0001606F010E0001616F050E00012C
:1052E800626FDBEC34F0B30E0001606F010E000159
:1052F800616F040E0001626FDBEC34F0D60E000122
:10530800606F010E0001616F0B0E0001626FDBEC34
:1053180034F0DD0E0001606F010E0001616F0D0EAB
:105328000001626FDBEC34F0C10E0001606F010E0A
:105338000001616F090E0001626FDBEC34F0000EB2
:105348000101B16F000E0001646F000E636F000170
:1053580064BF08D00001645113E10A0E0001635DC7
:10536800D8B01200A70E00016325D96E010E000106
:105378006421DA6E000EDF6E0001634B642BE7D701
:1053880012004450010D8E0EF324D96E010EF42044
:10539800DA6EEACEDFFF0001C2B14BD0AA0E0E01D1
:1053A800EA19D8A402D00001C281000E446E49D087
:1053B800EACED6F046D0EACED7F043D00E01EA5175
:1053C8000001DE130001C2910001C2853AD00E012E
:1053D800EA510001DF6FDE6B34D0D50E4424D96E5C
:1053E800DA6A000EDA22EACEDFFF2BD0FF0E016E5A
:1053F800FF0E026E4450036E046A031E041E034A25
:10540800042A0001D651056E066A03500526045089
:10541800062201500526025006220650000AD8A48A
:10542800DCD70550000AD8B4C9D7010AD8B4CFD7F9
:10543800D4D74450010AD8B4BBD7030AD8B4BBD7D1
:10544800D5D7442A1200000E00016B6F000E6A6F58
:1054580000016BBF08D000016B5155E1650E0001DA
:105468006A5DD8B012006AC060F06BC061F0000ECF
:105478000001636F050E626FB3EC38F0C00E0001D7
:10548800666F030E0001676F040E00016627000EA9
:105498006723000160510001662700016151000186
:1054A8006723040E00016625D96E000E00016721EE
:1054B800DA6E6AC0DFFFF90E0001666F010E0001A7
:1054C800676F6AC068F06BC069F00001D8906837F0
:1054D80069370001D89068376937000166510001C3
:1054E80068270001675100016923C40E000168257F
:1054F800D96E030E00016921DA6E6AC0DFFF000170
:105508006A4B6B2BA5D71200000E116E000E126E9F
:10551800000E136E000E146E000E156E000E166E41
:10552800EAEC3AF0580E176E9B0E186E000E196EC4
:10553800960E1A6E920E1B6E770E1C6E948C9550FA
:10554800F00B0509956E17C006F018C007F019C0D2
:1055580008F01AC009F01BC00AF01CC00BF00AECD6
:1055680030F017C006F018C007F019C008F01AC0CC
:1055780009F01BC00AF01CC00BF00AEC30F0110E49
:10558800016E000E026E140E036E000E046EEBEC3C
:1055980020F01150171807E11250181804E11350A1
:1055A8001918D8B40CD014501A1807E115501B1844
:1055B80004E116501C18D8B402D0000E1200E7EC13
:1055C8003CF0010E1200000E0001686F000E696FBA
:1055D800000E6A6F000E6B6F0001645100016511C7
:1055E8000001661100016711D8B442D0010E000114
:1055F8006C6F08D00001D890643765376637673715
:1056080000016C2B000167AFF5D70001D89068370F
:1056180069376A376B37000164510001605D00012A
:10562800655100016159000166510001625900018C
:10563800675100016359D8A012D0000164510001DC
:10564800605F000165510001615B00016651000166
:10565800625B000167510001635B00016881000122
:10566800D890673366336533643300016C2FCDD728
:1056780068C060F069C061F06AC062F06BC063F036
:10568800120044D0090E0101D76F120023EEC1F0B9
:10569800DFBA04D00D0E0101D76F12000E0E010102
:1056A800D76F12000E0E0101D76F1200020E010112
:1056B800D76F1200D0EC23F0F10E0001825D010ECD
:1056C80000018359D8A004D0040E0101D76F12003D
:1056D8000C0E0101D76F1200050E0101D76F1200E1
:1056E8005DEC23F0E70E0001825D020E0001835994
:1056F800D8A004D0080E0101D76F12000A0E0101CC
:10570800D76F1200010E0101D76F12000101D651A7
:10571800010AD8B4B7D7030AD8B4CCD7070AD8B483
:10572800DFD70C0AD8B4B2D7050AD8B4D5D7010A3E
:10573800D8B4B8D7030AD8B4B9D7E4D7000E000153
:10574800736F000E726F02014F51FE0F0001746FEC
:105758004F0E0001606F020E0001616F74C062F0AD
:105768000001636B08EC1EF060C070F061C071F05E
:1057780000017451010D4F0EF324D96E020EF4206E
:10578800DA6EDF5000016D6F00016D5100016F6F1F
:105798006E6B00016E510001721300016F51000120
:1057A80073130001745100016D6F6E6B010E0001DF
:1057B8006D27000E6E234F0E00016D25D96E020E67
:1057C80000016E21DA6EDF5000016F6F00016F512A
:1057D80000017213000172510001701908E1000103
:1057E800735100017119D8A402D0010E1200000EE5
:1057F800120027EE51F0DE2803E1DE28D8B41200AB
:1058080001010151070D060EF326000EF422000EC9
:10581800F324D96E010EF420DA6E62C0DFFF0101B5
:105828000151070D070EF326000EF422000EF32493
:10583800D96E010EF420DA6E60C0DEFF61C0DDFFB4
:1058480001010151070D020EF326000EF422000E8D
:10585800F324D96E010EF420DA6E63C0DFFF010174
:105868000151070D030EF326000EF422000EF32457
:10587800D96E010EF420DA6E64C0DEFF65C0DDFF6C
:10588800140E0101006102D00101002B0101012B5E
:10589800140E01010119D8A41200000E0101016FB4
:1058A800120027EE51F0DE2803E1DE28D8B41200FA
:1058B80001010151070D060EF326000EF422000E19
:1058C800F324D96E010EF420DA6E03C0DFFF010164
:1058D8000151070D070EF326000EF422000EF324E3
:1058E800D96E010EF420DA6E01C0DEFF02C0DDFFC2
:1058F80001010151070D020EF326000EF422000EDD
:10590800F324D96E010EF420DA6E04C0DFFF010122
:105918000151070D030EF326000EF422000EF324A6
:10592800D96E010EF420DA6E05C0DEFF06C0DDFF79
:10593800140E0101006102D00101002B0101012BAD
:10594800140E01010119D8A41200000E0101016F03
:10595800120044D0020E0101BB6F120029EC25F0A1
:105968000001835105E15B0E0001825DD8A00CD0D7
:10597800050E0001C76504D0030E0101BB6F1200BC
:10598800020E0101BB6F1200040E0101BB6F120071
:10599800050E0101BB6F1200050E0101BB6F12005D
:1059A800B6EC24F00001835105E1110E0001825D7F
:1059B800D8A00CD0050E0001C76504D0060E010161
:1059C800BB6F1200050E0101BB6F1200070E01012B
:1059D800BB6F1200010E0101BB6F12000101BA5129
:1059E800010AD8B4B7D7030AD8B4B8D7010AD8B4CB
:1059F800CFD7070AD8B4D0D7010AD8B4D1D7EAD7B5
:105A0800000E0001736F000E726F39D072C060F023
:105A180073C061F0000E0001636F050E626FB3EC96
:105A280038F0C40E000160250001706F030E0001FC
:105A380061210001716F66C0D9FF67C0DAFF70C0CD
:105A4800E1FF71C0E2FFDE50E6180AE1DE50E61819
:105A580007E1DE50E61804E1DE50E618D8B40AD0B3
:105A680066C0D9FF67C0DAFFDE50DE10DE10DE1038
:105A7800D8A402D0010E12000001724B732B23EE42
:105A8800C0F0DF500001686F696B000168510001C8
:105A9800725D00017351800A00016A6F000169514B
:105AA800800A00016A59D8A0B1D7000E120067C059
:105AB80000F265C06BF066C06CF067C06DF06CC03A
:105AC8006BF06DC06CF000016D6B00016B51020151
:105AD800016F65C002F26AC003F268C06BF069C06A
